:04000000CFEF3EF010
:107D6A003F065B4F666D7D077F6FC4EC3EF0000EE9
:107D7A00106E190E0F6E5CEC3FF000EF00F0F00E83
:107D8A000F01386F000E0F013B6F000E926E000E4E
:107D9A00956E12006A0EF66E7D0EF76E000EF86E84
:107DAA0000EE24F010EE0AF00900F5CFEEFFE550E0
:107DBA00E150FAE10001BAEF3EF0000E0E6E0AAE93
:107DCA0006D0096C0A1ED8B00A2A010E0E6E0CAE35
:107DDA0004D00B6C0C1ED8B00C2A0B500C10D8B463
:107DEA0018D0010E0D6E04D0D8900B360C360D2A21
:107DFA000CAEFAD70B50095C0C500A58D8A004D024
:107E0A000B50095E0C500A5AD8900C320B320D2EC8
:107E1A00F1D70E50D8B404D0096C0A1ED8B00A2A79
:107E2A0009C009F00AC00AF01200000E066E04AE7C
:107E3A0006D0036C041ED8B0042A010E066E02AEE8
:107E4A0006D0016C021ED8B0022A010E061A000ED4
:107E5A00086E000E076E03500410D8B41CD0010E31
:107E6A00056E04D0D89003360436052A04AEFAD734
:107E7A00D890073608360350015C04500258D8A03F
:107E8A0005D00350015E0450025A0780D89004328C
:107E9A000332052EEDD70650D8B404D0076C081E5D
:107EAA00D8B0082A07C001F008C002F0120020EE7C
:107EBA0024F010EE12F0090EDBCFE3FFE806FCE235
:107ECA000FC009F010C00AF0000E0C6E0A0E0B6EFD
:107EDA00E2EC3EF009C01CF00AC01DF0000E046E70
:107EEA000A0E036E0FC001F010C002F01AEC3FF048
:107EFA0001C009F002C00AF0000E0C6E0A0E0B6EE9
:107F0A00E2EC3EF009C01EF00AC01FF0000E046E3B
:107F1A00640E036E0FC001F010C002F01AEC3FF0BD
:107F2A0001C009F002C00AF0000E0C6E0A0E0B6EB8
:107F3A00E2EC3EF009C020F00AC021F0030E046E04
:107F4A00E80E036E0FC001F010C002F01AEC3FF009
:107F5A0001C009F002C00AF0000E0C6E0A0E0B6E88
:107F6A00E2EC3EF009C022F00AC023F0080E806E4F
:107F7A00120E2224D96E000E2320DA6EDF50836E91
:107F8A000D0E116EFC0EE82EFED7112EFCD7040E34
:107F9A00806E120E2024D96E000E2120DA6EDF5078
:107FAA00836E0D0E116EFC0EE82EFED7112EFCD735
:107FBA00020E806E120E1E24D96E000E1F20DA6E7B
:107FCA00DF50836E0D0E116EFC0EE82EFED7112EB9
:107FDA00FCD7010E806E120E1C24D96E000E1D20D5
:107FEA00DA6EDF50836E0D0E116EFC0EE82EFED790
:067FFA00112EFCD7BBD7DD
:020000040030CA
:0E000000FF021900FFA580FF0FC00FE00F40A8
:00000001FF
