:040000006CEF3FF072
:107ED80000017AEF3FF0F00E0F01386F000E0F012E
:107EE8003B6F000E926E000E956E12006FEC3FF025
:107EF80080803F0E836E060E026E130E016EAE0E6C
:107F0800E82EFED7012EFCD7022EFAD7060E836E76
:107F1800060E026E130E016EAE0EE82EFED7012E6F
:107F2800FCD7022EFAD75B0E836E060E026E130E76
:107F3800016EAE0EE82EFED7012EFCD7022EFAD720
:107F48004F0E836E060E026E130E016EAE0EE82EF5
:107F5800FED7012EFCD7022EFAD7660E836E060EC8
:107F6800026E130E016EAE0EE82EFED7012EFCD760
:107F7800022EFAD76D0E836E060E026E130E016E78
:107F8800AE0EE82EFED7012EFCD7022EFAD77D0EB4
:107F9800836E060E026E130E016EAE0EE82EFED72D
:107FA800012EFCD7022EFAD7070E836E060E026E3C
:107FB800130E016EAE0EE82EFED7012EFCD7022E50
:107FC800FAD77F0E836E060E026E130E016EAE0E8A
:107FD800E82EFED7012EFCD7022EFAD76F0E836E3D
:107FE800060E026E130E016EAE0EE82EFED7012E9F
:087FF800FCD7022EFAD77DD759
:020000040030CA
:0E000000FF021900FFA580FF0FC00FE00F40A8
:00000001FF
